:040000000CEF00F011
:10000800FACF01F0FBCF02F0E9CF03F0CAED08F018
:04001800C4EF0AF037
:1008000000564F4C544D4554455200563D00000093
:10081000F28EF28C9D8C9280000E956EC09EC186E9
:10082000C184C182C190C294C296C298C298C0804D
:10083000C092C084C280C282010E51EC0AF0280E20
:10084000D4EC07F000D017EC0AF00009D8A4FBD7CD
:100850000F0EF7EC09F00E0EF7EC09F000D017ECD4
:100860000AF00009D8A4FBD7060EF7EC09F0010E38
:10087000106E080E116E35EC0AF0020E51EC0AF003
:10088000CEEC0AF0040E136E010E99EC0AF00B0E7A
:10089000106E080E116E35EC0AF000D0000E00014B
:1008A0007D6F000E7E6F000E7F6F000E806F000E5A
:1008B0000001766F000E776F000E786F000E796F73
:1008C00082C060F0060E0001616F0001D8906033B5
:1008D0000001612FFAD70001605100017D6F7E6B2E
:1008E0007F6B806B000181510001606F616B0001C3
:1008F000D890603761370001D8906037613760C0A9
:1009000076F061C077F00001000E77BFFF0E786FC0
:10091000796F0001765100017D1100017D6F0001AA
:10092000775100017E1100017E6F000178510001B6
:100930007F1100017F6F00017951000180110001DA
:10094000806F400E326E9C0E336E450E346EC00EBC
:10095000236E7F0E246E440E256E7DC017F07EC080
:1009600018F07FC019F080C01AF006EC09F017C02B
:1009700020F018C021F019C022F000EC07F020C0D0
:100980002FF021C030F022C031F011EC06F02FC062
:100990003EF030C03FF031C040F08DEC06F03EC07C
:1009A0007DF03FC07EF040C07FF041C080F07DC050
:1009B00015F07EC016F07FC017F080C018F0E80E6A
:1009C000196E030E1A6E000E1B6E000E1C6E84EC68
:1009D00008F0155000017C6F060E136E010E99ECA5
:1009E0000AF06C0E1F6E000E206E7CC021F0226A91
:1009F000000E246E0A0E236EB4EC09F000016C5157
:100A0000D7EC09F0070E136E010E99EC0AF02E0ECA
:100A1000D7EC09F07CC00FF0106A030E126EE80EDE
:100A2000116E85EC0AF00FC060F010C061F0000E8E
:100A3000000161BFFF0E626F636F0001601F611FE5
:100A4000621F631F602B000E61236223632300017A
:100A50007D5100016025156E00017E51000161216C
:100A6000166E00017F5100016221176E0001805156
:100A700000016321186E640E196E000E1A6E000ECE
:100A80001B6E000E1C6E84EC08F0155000017A6F8E
:100A9000080E136E010E99EC0AF06C0E1F6E000E1C
:100AA000206E7AC021F0226A000E246E0A0E236E98
:100AB000B4EC09F000016C51D7EC09F000017A5157
:100AC000640DF3CF60F0F4CF61F0000E000161BF60
:100AD000FF0E626F636F7CC00FF0106A030E126E20
:100AE000E80E116E85EC0AF00FC064F010C065F0DE
:100AF000000E000165BFFF0E666F676F0001605159
:100B0000000164250001686F000161510001652149
:100B10000001696F000162510001662100016A6FE6
:100B2000000163510001672100016B6F0001681F24
:100B3000691F6A1F6B1F682B000E69236A236B23D2
:100B400000017D5100016825156E00017E510001F4
:100B50006921166E00017F5100016A21176E0001A4
:100B6000805100016B21186E0A0E196E000E1A6E6C
:100B7000000E1B6E000E1C6E84EC08F01550000178
:100B80007B6F090E136E010E99EC0AF06C0E1F6E4E
:100B9000000E206E7BC021F0226A000E246E0A0E29
:100BA000236EB4EC09F000016C51D7EC09F00001A0
:100BB0007B510A0DF3CF60F000017A51640DF3CF41
:100BC00061F07CC00FF0106A030E126EE80E116E19
:100BD00085EC0AF00F500001612500016025000836
:100BE00000017D2500017B6F0A0E136E010E99EC4A
:100BF0000AF06C0E1F6E000E206E7BC021F0226A80
:100C0000000E246E0A0E236EB4EC09F000016C5144
:100C1000D7EC09F0010E6BEC0AF0C2823FD60CEF64
:100C200000F031C035F0366A376A3034353601E3CA
:100C300036803550386E3850D8A402D00ED06CD0E3
:100C400034C035F0366A376A3334353601E33680DE
:100C500035503D6E3D50D8A407D0000E2F6E000ECB
:100C6000306E000E316E58D03D507B0F382631C0AB
:100C70003DF034503D1A800E3D16308E338EFF0EFF
:100C80003216FF0E3316000E3416000E396E000EAB
:100C90003A6E000E3B6E070E3C6E00D02FA007D0C0
:100CA0003250392633503A2234503B2200D0D8906B
:100CB000313230322F32D8903236333634363C2E01
:100CC000EDD700D0090E3C6E00D02FA007D03250D7
:100CD000392633503A2234503B2200D0D89031325A
:100CE00030322F32D8903B323A3239323C2EEDD767
:100CF00000D039C00FF03AC010F03BC011F038C03E
:100D000012F03DC013F071EC07F00FC02FF010C0CF
:100D100030F011C031F000D0120040C042F0436A00
:100D2000446A3F34423601E3438042504C6E4C509B
:100D3000D8A402D039D063D0170E426E3EC043F023
:100D40003FC044F040C045F04228466E04D0D890E1
:100D5000453244324332462EFAD74350476E3F8ED7
:100D6000FF0E3E16FF0E3F16000E40163E50486E18
:100D70003F50496E40504A6E4B6A8E0E4C5E4CAEF0
:100D800010D04C50800A8F0FD8B003D00DD037D080
:100D900000D0D8904B324A32493248324C3EF9D7D3
:100DA00019D0170E4C6411D0000E3E6E000E3F6E2F
:100DB000000E406E000E416E22D007D0D89048360B
:100DC00049364A364B364C0600D04C50D8B402D087
:100DD000F5D700D04750D8B409D04B1E4A1E491E43
:100DE000486C000E49224A224B2200D048C03EF0F7
:100DF00049C03FF04AC040F04BC041F000D0120063
:100E000022C026F0276A286A2134263601E327808B
:100E100026502D6E2D50D8A402D00ED061D025C002
:100E200026F0276A286A2434263601E327802650D4
:100E30002E6E2E50D8A407D0000E206E000E216E0C
:100E4000000E226E4DD0000E2A6E000E2B6E000E8C
:100E50002C6E2E50890F2D5E22C02EF025502E1A9A
:100E6000800E2E16218EFF0E2016FF0E2116000E6C
:100E70002216248EFF0E2316FF0E2416000E2516B2
:100E8000180E296E00D0D8902A362B362C362350D7
:100E9000205C2450215825502258D8A007D0235038
:100EA000205E2450215A2550225A2A80D89020367C
:100EB00021362236292EE7D700D02AC00FF02BC0CA
:100EC00010F02CC011F02DC012F02EC013F071ECF8
:100ED00007F00FC020F010C021F011C022F000D0A8
:100EE00012001250D8B405D00F5010101110D8A411
:100EF0000ED0000E0F6E000E106E000E116E53D04D
:100F000006D0122AD890113210320F3200D0000EC3
:100F10000F14146E000E1014156EFE0E1114166EC2
:100F2000145015101610D8B40ED0EBD70CD0122ACE
:100F3000010E0F26000E1022000E1122D890113241
:100F400010320F3200D0000E0F14146E000E101469
:100F5000156EFF0E1114166E145015101610D8B41D
:100F600008D0E5D706D01206D8900F3610361136C5
:100F700000D010BE04D0020E1260F5D700D012B01F
:100F800002D0109E00D0D89012321250111213507D
:100F9000D8B402D0118E00D00FC00FF010C010F0E6
:100FA00011C011F000D01200136EF00E8116F00E79
:100FB0009316939C939A93988A9C8A9A8A98D8ECD1
:100FC0000AF0300EF7EC09F0050EB8EC0AF0300E1E
:100FD000F7EC09F0010EB8EC0AF0320EF7EC09F06C
:100FE00000D017EC0AF00009D8B402D0FAD700D02C
:100FF00017EC0AF00009D8A4FBD71350F7EC09F05E
:1010000000D017EC0AF00009D8A4FBD7080EF7ECC3
:1010100009F000D017EC0AF00009D8A4FBD70F0E96
:10102000F7EC09F000D017EC0AF00009D8A4FBD7C0
:10103000010EF7EC09F000D017EC0AF00009D8A473
:10104000FBD7040EF7EC09F000D017EC0AF000090A
:10105000D8A4FBD7800E64EC09F000D0120018C0B1
:101060001CF019C01DF000D01CC00FF01DC010F006
:101070001AC011F01BC012F036EC09F00FC01CF0C2
:1010800010C01DF0164A172A1C501D10D8A4ECD70A
:1010900016C0D9FF17C0DAFF000EDF6E1606D8A003
:1010A000170600D018C00FF019C010F01AC011F0C8
:1010B0001BC012F08EEC09F00F501E6E18C00FF01E
:1010C00019C010F01AC011F01BC012F036EC09F074
:1010D0000FC018F010C019F0090E1E6402D0070EE0
:1010E0001E26300E1E2616C0D9FF17C0DAFF1EC0FE
:1010F000DFFF1606D8A0170618501910D8A4D2D7AB
:10110000164A172A00D01200000E1D6E000E1E6E29
:10111000000E1F6E000E206E19501A101B101C10AE
:10112000D8B42FD0010E216E07D0D89019361A36B8
:101130001B361C36212A00D01CBE02D0F6D700D0A8
:10114000D8901D361E361F3620361950155C1A50A1
:1011500016581B5017581C501858D8A00AD01950B0
:10116000155E1A50165A1B50175A1C50185A1D80DB
:1011700000D0D8901C321B321A321932212EE0D7FF
:1011800000D01DC015F01EC016F01FC017F020C003
:1011900018F012000600EACF04F0E1CF05F0E2CF2C
:1011A00006F0D9CF07F0DACF08F0F3CF09F0F4CF8B
:1011B0000AF0F6CF0BF0F7CF0CF0F8CF0DF0F5CF2B
:1011C0000EF0C3CF82F0C4CF81F081C083FFF28ED6
:1011D0009E9C0EC0F5FF0DC0F8FF0CC0F7FF0BC0C2
:1011E000F6FF0AC0F4FF09C0F3FF08C0DAFF07C02A
:1011F000D9FF06C0E2FF05C0E1FF04C0EAFF03C05B
:10120000E9FF02C0FBFF01C0FAFF11008E0E1F6E46
:1012100007D0D8901A321932183217321F2A00D04C
:10122000000E17141B6E000E18141C6E000E1914FD
:101230001D6EFF0E1A141E6E1B501C101D101E106A
:10124000D8A4E7D717C00FF018C010F019C011F0DC
:101250001FC012F0000E136E71EC07F00FC017F0F4
:1012600010C018F011C019F000D01200000E146E5A
:10127000000E136E11501210D8B421D0010E156E4D
:1012800005D0D89011361236152A00D012BE02D0E1
:10129000F8D700D0D8901336143611500F5C125086
:1012A0001058D8A006D011500F5E1250105A13805B
:1012B00000D0D89012321132152EECD700D013C0C6
:1012C0000FF014C010F01200126EF00E9316F00E14
:1012D000811612500F6E106A0F8E040E116E1034AC
:1012E00010320F32112EFBD70F500F0B81128A9C38
:1012F0008A9AA9EC0AF08A88A9EC0AF08A98F00E7A
:10130000811612500F0B8112A9EC0AF08A88A9EC01
:101310000AF08A980F0E931200D01200115012108A
:10132000D8B41DD0010E136E05D0D89011361236E8
:10133000132A00D012BE02D0F8D700D011500F5C93
:1013400012501058D8A005D011500F5E1250105AEC
:1013500000D0D89012321132132EF0D700D00FC027
:101360000FF010C010F012001FC025F020C026F0B2
:1013700022AE0DD01FC0D9FF20C0DAFF2D0EDF6EC8
:101380001F4A202A216C221ED8B0222A00D01FC05A
:1013900016F020C017F021C018F022C019F023C0A9
:1013A0001AF024C01BF02FEC08F000D012000F6ED2
:1013B000F00E9316F00E81160F380F0B0F0B8112E3
:1013C0008A8A8A9CA9EC0AF08A88A9EC0AF08A9891
:1013D000F00E81160F500F0B8112A9EC0AF08A88CB
:1013E000A9EC0AF08A980F0E931200D012000F6E2B
:1013F000F00E9316F00E81160F380F0B0F0B8112A3
:101400008A9C8A9AA9EC0AF08A88A9EC0AF08A9840
:10141000F00E81160F500F0B8112A9EC0AF08A888A
:10142000A9EC0AF08A980F0E931200D012008A8C51
:101430008A9AA9EC0AF08A88A9EC0AF081A60AD057
:101440008A98A9EC0AF08A88A9EC0AF08A988A9C02
:10145000010E0AD08A98A9EC0AF08A88A9EC0AF051
:101460008A988A9C000E00D0120011D000D017EC90
:101470000AF00009D8A4FBD710C0F6FF11C0F7FF8F
:101480000800F550D7EC09F0104A112A00D010C01E
:10149000F6FF11C0F7FF0800F5500009D8A4E7D700
:1014A0001200106E000E116E11D0000E126E630E3F
:1014B000126401D009D00D0E0F6EFC0EE82EFED77F
:1014C0000F2EFCD7122AF3D7112A00D01050115C2E
:1014D000D8A0EBD71200106E000E116E11D0000EC6
:1014E000126E090E126401D009D00D0E0F6EFC0EA3
:1014F000E82EFED70F2EFCD7122AF3D7112A00D0E0
:101500001050115CD8A0EBD712000F501102F3CF8E
:1015100013F0F4CF14F00F501202F35014261050B1
:101520001102F350142613C00FF014C010F000D0B5
:101530001200146E1404280DF3501324156E00D0FD
:1015400017EC0AF00009D8A4FBD7155064EC09F099
:10155000120000F000F000F000F000F000F000F0E9
:1015600000F000F000F000F000F000F000F01200D9
:10157000106E0D0E0F6EFC0EE82EFED70F2EFCD750
:10158000102EF7D700D012000001826B816B000E85
:10159000F86E080EF76E000108EF04F000D017ECAB
:1015A0000AF00009D8A4FBD7010EF7EC09F01200ED
:1015B000140E0F6E7A0EE82EFED70F2EFCD700D039
:0215C000120017
:020000040020DA
:08000000FFFFFFFFFFFFFFFF00
:020000040030CA
:0E000000000C1F1EFF8181FF0FC00FE00F409C
:00000001FF
